:100000000C9434000C9451000C9451000C94510049
:100010000C9451000C9451000C9451000C94F90074
:100020000C9451000C9451000C9451000C9451000C
:100030000C9451000C9451000C9451000C945100FC
:100040000C9451000C9451000C9451000C945100EC
:100050000C9451000C9451000C9451000C945100DC
:100060000C9451000C94510011241FBECFEFD8E026
:10007000DEBFCDBF12E0A0E0B1E0ECE6F7E002C0E9
:1000800005900D92AE38B107D9F722E0AEE8B2E0A4
:1000900001C01D92A239B207E1F70E945A020C94E6
:1000A000B4030C94000082E08093B00094E090933D
:1000B000B1008093700089EF8093B30008952FB74B
:1000C000F89460918E0270918F02809190029091CD
:1000D00091022FBF0895E4E6F0E080818F7B80835A
:1000E000E0E78081826080830895E0E7F0E080812E
:1000F0008D7F8083E4E680818064808308958FB75C
:10010000F89410928E0210928F0210929002109228
:1001100091028FBF0895EFB7F89420918E0230912D
:100120008F024091900250919102DC01CB01820F2D
:10013000931FA41FB51F80938E0290938F02A093EC
:100140009002B0939102EFBF0895EF92FF920F9348
:100150001F93EFB7F89420918E0230918F02409157
:1001600090025091910279018A01E61AF70A080B70
:10017000190BC701D80180938E0290938F02A09330
:100180009002B0939102EFBF1F910F91FF90EF90FB
:100190000895CF93DF93CDB7DEB728970FB6F894C5
:1001A000DEBF0FBECDBF69837A838B839C830E94A1
:1001B0005F006D837E838F8398870E945F002D810F
:1001C0003E814F815885621B730B840B950B2981EF
:1001D0003A814B815C81621773078407950768F346
:1001E00028960FB6F894DEBF0FBECDBFDF91CF913A
:1001F00008951F921FB61F9211248F939F93AF9360
:10020000BF9380918E0290918F02A0919002B09145
:1002100091020196A11DB11D80938E0290938F02D1
:10022000A0939002B0939102BF91AF919F918F9153
:100230001F901FBE1F90189560FF13C05C9A61FF4E
:1002400012C05D9A62FF11C05E9A63FF10C05F9A90
:100250005B9A61E070E080E090E00E94C9005B98EA
:1002600008955C98ECCF5D98EDCF5E98EECF5F98E7
:10027000EFCFCF93DF9300D00F92CDB7DEB7898356
:100280009A836B8362956F700E941C016B818981D8
:100290009A810F900F900F90DF91CF910C941C01D9
:1002A0000E9439016AE070E080E090E00C94C9009F
:1002B00061E00E94500162E070E080E090E00C9408
:1002C000C900CF93DF93EC01529A539A549A559AEE
:1002D000569A579A5B985A9864E670E080E090E0EE
:1002E0000E94C90063E0CE010E941C0165E070E03D
:1002F00080E090E00E94C90063E0CE010E941C01F2
:1003000064E670E080E090E00E94C90063E0CE0106
:100310000E941C0164E670E080E090E00E94C90049
:1003200062E0CE010E941C0164E670E080E090E093
:100330000E94C90068E2CE010E94500164E670E0AC
:1003400080E090E00E94C9006CE0CE010E94500164
:1003500064E670E080E090E00E94C900CE010E9457
:10036000580162E070E080E090E00E94C90066E021
:10037000CE010E94500164E670E080E090E0DF91E1
:10038000CF910C94C90062E00E94500162E070E0DD
:1003900080E090E00C94C900CF93DF9300D00F92DF
:1003A000CDB7DEB789839A836B835A9A62E070E097
:1003B00080E090E00E94C9006B8189819A810E944F
:1003C000390162E070E080E090E00E94C9005A9834
:1003D00062E070E080E090E00F900F900F90DF916E
:1003E000CF910C94C900EF92FF920F931F93CF937C
:1003F000DF937C01EB010E94580100E010E068816E
:10040000611107C0DF91CF911F910F91FF90EF9085
:1004100008956D3051F06A3051F4013099F360EC79
:10042000C7010E94500101E010E02196E8CFC7010A
:100430000E94CC011F5F1031C0F3EFCF1F93CF9309
:10044000DF9300D000D0CDB7DEB78B839C83698368
:100450007A830E94580169817A818B819C810E94F4
:10046000F30115E060E476E080E090E00E94C900CE
:100470008B819C810E94580160E971E080E090E0EE
:100480000E94C90069817A818B819C810E94F3015D
:10049000115041F70F900F900F900F90DF91CF9177
:1004A0001F9108954295440F440F407C6058640F9B
:1004B0000C94500100D00F92CDB7DEB70E945300CC
:1004C00078948E010F5F1F4FC8010E9461010A835B
:1004D0001B8302E711E50E940C03B8010E949602FB
:1004E000E0E1F1E0863D26E0920798F0E8E0F1E0F7
:1004F0008A3920E1920768F0E0E0F1E08E3B23E2E8
:10050000920738F0E0E2F1E08634974310F0E8E13A
:10051000F1E0608171818A819B810E94F30168E82A
:1005200073E180E090E00E94C900D5CF97FB072ED1
:1005300016F4009407D077FD09D00E94AA0207FCA8
:1005400005D03EF4909581959F4F089570956195E3
:100550007F4F0895AA1BBB1B51E107C0AA1FBB1FF9
:10056000A617B70710F0A61BB70B881F991F5A953F
:10057000A9F780959095BC01CD010895AAE0B0E05F
:10058000E4ECF2E00C945C0389879A87FC016081BB
:1005900071818281938100977040604021F464E210
:1005A00079ED8BE597E02DE133EF41E050E00E94DB
:1005B0001A0329833A834B835C839B01AC01A7EA2E
:1005C000B1E40E9439036D837E838F839887ACEEFC
:1005D000B4EF29813A814B815C810E9447032D81D0
:1005E0003E814F815885260F371F481F591FC9016B
:1005F000DA01B7FF03C00197A109B048E985FA8580
:1006000080839183A283B3839F772A96E2E00C9440
:1006100078030E94BE02089588E291E00E94BE0223
:100620000895809328019093290110922A01109235
:100630002B010895052E97FB1EF400940E943103B0
:1006400057FD07D00E94920307FC03D04EF40C9490
:10065000310350954095309521953F4F4F4F5F4F57
:10066000089590958095709561957F4F8F4F9F4F1E
:1006700008950E948303A59F900DB49F900DA49FA1
:10068000800D911D11240895B7FF0C9439030E9429
:100690003903821B930B08952F923F924F925F92E2
:1006A0006F927F928F929F92AF92BF92CF92DF9282
:1006B000EF92FF920F931F93CF93DF93CDB7DEB7E7
:1006C000CA1BDB0B0FB6F894DEBF0FBECDBF09947B
:1006D0002A88398848885F846E847D848C849B84D2
:1006E000AA84B984C884DF80EE80FD800C811B81E0
:1006F000AA81B981CE0FD11D0FB6F894DEBF0FBE0F
:10070000CDBFED010895A29FB001B39FC001A39F8B
:10071000700D811D1124911DB29F700D811D11243A
:10072000911D0895A1E21A2EAA1BBB1BFD010DC04D
:10073000AA1FBB1FEE1FFF1FA217B307E407F50791
:1007400020F0A21BB30BE40BF50B661F771F881F6D
:10075000991F1A9469F760957095809590959B0103
:0C076000AC01BD01CF010895F894FFCF5B
:10076C00540124132C0101008001C4093001020042
:10077C00B601D6063801030012022C1A44010200FD
:10078C00560288134C010200010000005F010100B9
:10079C008B0101009F010000C3010000E00101007A
:1007AC00FA0101001E0201003B020000630200007E
:1007BC0073020000576173686F6D616E696100436D
:1007CC006C65616E20637573746F6D6572732068F0
:1007DC006170707920637573746F6D65727321002D
:1007EC005069652050656F706C65004D616B696E6A
:1007FC00672070656F706C6520666C6F6174005457
:10080C006865792061726520686F7420616E642060
:10081C006A616D6D7900486F6C79204275726765FD
:10082C0072730046726565206472696E6B73206921
:10083C006E636C7564656420696E206D656E750001
:10084C004275726765726D616E6961212032206636
:10085C006F722035392053454B00426164616269E7
:10086C006D2E2E2E20426164612042555247455216
:10087C00210047796D626F204A616D6573004E6F80
:10088C00206D6F7265206578637573657321204FD9
:10089C006E6C79204741494E53210050726F2047AE
:1008AC00796D626F6E6F202D203134206461797305
:1008BC00206672656500436F6F6C43617273204CE8
:1008CC004C43004472697665206D65206372617AD1
:1008DC0079210033302D646179206D6F6E657962FA
:0E08EC0061636B2067756172616E74656500F3
:00000001FF
